{
  "contractName": "MatthewToken",
  "abi": [
    {
      "inputs": [
        {
          "internalType": "string",
          "name": "_name",
          "type": "string"
        },
        {
          "internalType": "string",
          "name": "_symbol",
          "type": "string"
        },
        {
          "internalType": "uint8",
          "name": "_decimals",
          "type": "uint8"
        },
        {
          "internalType": "uint256",
          "name": "_initialOwnerBalance",
          "type": "uint256"
        }
      ],
      "stateMutability": "nonpayable",
      "type": "constructor"
    },
    {
      "anonymous": false,
      "inputs": [
        {
          "indexed": true,
          "internalType": "address",
          "name": "_owner",
          "type": "address"
        },
        {
          "indexed": true,
          "internalType": "address",
          "name": "_spender",
          "type": "address"
        },
        {
          "indexed": false,
          "internalType": "uint256",
          "name": "_value",
          "type": "uint256"
        }
      ],
      "name": "Approval",
      "type": "event"
    },
    {
      "anonymous": false,
      "inputs": [
        {
          "indexed": true,
          "internalType": "address",
          "name": "_from",
          "type": "address"
        },
        {
          "indexed": true,
          "internalType": "address",
          "name": "_to",
          "type": "address"
        },
        {
          "indexed": false,
          "internalType": "uint256",
          "name": "_value",
          "type": "uint256"
        }
      ],
      "name": "Transfer",
      "type": "event"
    },
    {
      "inputs": [],
      "name": "totalSupply",
      "outputs": [
        {
          "internalType": "uint256",
          "name": "total",
          "type": "uint256"
        }
      ],
      "stateMutability": "view",
      "type": "function"
    },
    {
      "inputs": [
        {
          "internalType": "address",
          "name": "_owner",
          "type": "address"
        }
      ],
      "name": "balanceOf",
      "outputs": [
        {
          "internalType": "uint256",
          "name": "balance",
          "type": "uint256"
        }
      ],
      "stateMutability": "view",
      "type": "function"
    },
    {
      "inputs": [
        {
          "internalType": "address",
          "name": "_owner",
          "type": "address"
        },
        {
          "internalType": "address",
          "name": "_spender",
          "type": "address"
        }
      ],
      "name": "allowance",
      "outputs": [
        {
          "internalType": "uint256",
          "name": "remaining",
          "type": "uint256"
        }
      ],
      "stateMutability": "view",
      "type": "function"
    },
    {
      "inputs": [
        {
          "internalType": "address",
          "name": "_spender",
          "type": "address"
        },
        {
          "internalType": "uint256",
          "name": "_value",
          "type": "uint256"
        }
      ],
      "name": "approve",
      "outputs": [
        {
          "internalType": "bool",
          "name": "success",
          "type": "bool"
        }
      ],
      "stateMutability": "nonpayable",
      "type": "function"
    },
    {
      "inputs": [
        {
          "internalType": "address",
          "name": "_to",
          "type": "address"
        },
        {
          "internalType": "uint256",
          "name": "_value",
          "type": "uint256"
        }
      ],
      "name": "transfer",
      "outputs": [
        {
          "internalType": "bool",
          "name": "success",
          "type": "bool"
        }
      ],
      "stateMutability": "nonpayable",
      "type": "function"
    },
    {
      "inputs": [
        {
          "internalType": "address",
          "name": "_from",
          "type": "address"
        },
        {
          "internalType": "address",
          "name": "_to",
          "type": "address"
        },
        {
          "internalType": "uint256",
          "name": "_value",
          "type": "uint256"
        }
      ],
      "name": "transferFrom",
      "outputs": [
        {
          "internalType": "bool",
          "name": "success",
          "type": "bool"
        }
      ],
      "stateMutability": "nonpayable",
      "type": "function"
    }
  ],
  "bytecode": "0x60806040523480156200001157600080fd5b506040516200124638038062001246833981810160405281019062000037919062000293565b83600090805190602001906200004f92919062000143565b5082600190805190602001906200006892919062000143565b5081600260006101000a81548160ff021916908360ff1602179055508060038190555080600460003373ffffffffffffffffffffffffffffffffffffffff1673ffffffffffffffffffffffffffffffffffffffff168152602001908152602001600020819055503373ffffffffffffffffffffffffffffffffffffffff16600073ffffffffffffffffffffffffffffffffffffffff167fddf252ad1be2c89b69c2b068fc378daa952ba7f163c4a11628f55a4df523b3ef60035460405162000131919062000342565b60405180910390a3505050506200051a565b82805462000151906200040b565b90600052602060002090601f016020900481019282620001755760008555620001c1565b82601f106200019057805160ff1916838001178555620001c1565b82800160010185558215620001c1579182015b82811115620001c0578251825591602001919060010190620001a3565b5b509050620001d09190620001d4565b5090565b5b80821115620001ef576000816000905550600101620001d5565b5090565b60006200020a620002048462000388565b6200035f565b9050828152602081018484840111156200022357600080fd5b62000230848285620003d5565b509392505050565b600082601f8301126200024a57600080fd5b81516200025c848260208601620001f3565b91505092915050565b6000815190506200027681620004e6565b92915050565b6000815190506200028d8162000500565b92915050565b60008060008060808587031215620002aa57600080fd5b600085015167ffffffffffffffff811115620002c557600080fd5b620002d38782880162000238565b945050602085015167ffffffffffffffff811115620002f157600080fd5b620002ff8782880162000238565b935050604062000312878288016200027c565b9250506060620003258782880162000265565b91505092959194509250565b6200033c81620003be565b82525050565b600060208201905062000359600083018462000331565b92915050565b60006200036b6200037e565b905062000379828262000441565b919050565b6000604051905090565b600067ffffffffffffffff821115620003a657620003a5620004a6565b5b620003b182620004d5565b9050602081019050919050565b6000819050919050565b600060ff82169050919050565b60005b83811015620003f5578082015181840152602081019050620003d8565b8381111562000405576000848401525b50505050565b600060028204905060018216806200042457607f821691505b602082108114156200043b576200043a62000477565b5b50919050565b6200044c82620004d5565b810181811067ffffffffffffffff821117156200046e576200046d620004a6565b5b80604052505050565b7f4e487b7100000000000000000000000000000000000000000000000000000000600052602260045260246000fd5b7f4e487b7100000000000000000000000000000000000000000000000000000000600052604160045260246000fd5b6000601f19601f8301169050919050565b620004f181620003be565b8114620004fd57600080fd5b50565b6200050b81620003c8565b81146200051757600080fd5b50565b610d1c806200052a6000396000f3fe608060405234801561001057600080fd5b50600436106100625760003560e01c8063095ea7b31461006757806318160ddd1461009757806323b872dd146100b557806370a08231146100e5578063a9059cbb14610115578063dd62ed3e14610145575b600080fd5b610081600480360381019061007c9190610b1c565b610175565b60405161008e9190610bae565b60405180910390f35b61009f610267565b6040516100ac9190610bc9565b60405180910390f35b6100cf60048036038101906100ca9190610acd565b6102bb565b6040516100dc9190610bae565b60405180910390f35b6100ff60048036038101906100fa9190610a68565b6106ce565b60405161010c9190610bc9565b60405180910390f35b61012f600480360381019061012a9190610b1c565b610717565b60405161013c9190610bae565b60405180910390f35b61015f600480360381019061015a9190610a91565b6109a2565b60405161016c9190610bc9565b60405180910390f35b600081600560003373ffffffffffffffffffffffffffffffffffffffff1673ffffffffffffffffffffffffffffffffffffffff16815260200190815260200160002060008573ffffffffffffffffffffffffffffffffffffffff1673ffffffffffffffffffffffffffffffffffffffff168152602001908152602001600020819055508273ffffffffffffffffffffffffffffffffffffffff163373ffffffffffffffffffffffffffffffffffffffff167f8c5be1e5ebec7d5bd14f71427d1e84f3dd0314c0f7b2291e5b200ac8c7c3b925846040516102559190610bc9565b60405180910390a36001905092915050565b6000600460008073ffffffffffffffffffffffffffffffffffffffff1673ffffffffffffffffffffffffffffffffffffffff168152602001908152602001600020546003546102b69190610c0d565b905090565b6000600460008573ffffffffffffffffffffffffffffffffffffffff1673ffffffffffffffffffffffffffffffffffffffff1681526020019081526020016000205473__SafeMath______________________________63a293d1e89091846040518363ffffffff1660e01b8152600401610337929190610be4565b60206040518083038186803b15801561034f57600080fd5b505af4158015610363573d6000803e3d6000fd5b505050506040513d601f19601f820116820180604052508101906103879190610b58565b600460008673ffffffffffffffffffffffffffffffffffffffff1673ffffffffffffffffffffffffffffffffffffffff16815260200190815260200160002081905550600560008573ffffffffffffffffffffffffffffffffffffffff1673ffffffffffffffffffffffffffffffffffffffff16815260200190815260200160002060003373ffffffffffffffffffffffffffffffffffffffff1673ffffffffffffffffffffffffffffffffffffffff1681526020019081526020016000205473__SafeMath______________________________63a293d1e89091846040518363ffffffff1660e01b8152600401610481929190610be4565b60206040518083038186803b15801561049957600080fd5b505af41580156104ad573d6000803e3d6000fd5b505050506040513d601f19601f820116820180604052508101906104d19190610b58565b600560008673ffffffffffffffffffffffffffffffffffffffff1673ffffffffffffffffffffffffffffffffffffffff16815260200190815260200160002060003373ffffffffffffffffffffffffffffffffffffffff1673ffffffffffffffffffffffffffffffffffffffff16815260200190815260200160002081905550600460008473ffffffffffffffffffffffffffffffffffffffff1673ffffffffffffffffffffffffffffffffffffffff1681526020019081526020016000205473__SafeMath______________________________63e6cb90139091846040518363ffffffff1660e01b81526004016105cb929190610be4565b60206040518083038186803b1580156105e357600080fd5b505af41580156105f7573d6000803e3d6000fd5b505050506040513d601f19601f8201168201806040525081019061061b9190610b58565b600460008573ffffffffffffffffffffffffffffffffffffffff1673ffffffffffffffffffffffffffffffffffffffff168152602001908152602001600020819055508273ffffffffffffffffffffffffffffffffffffffff168473ffffffffffffffffffffffffffffffffffffffff167fddf252ad1be2c89b69c2b068fc378daa952ba7f163c4a11628f55a4df523b3ef846040516106bb9190610bc9565b60405180910390a3600190509392505050565b6000600460008373ffffffffffffffffffffffffffffffffffffffff1673ffffffffffffffffffffffffffffffffffffffff168152602001908152602001600020549050919050565b6000600460003373ffffffffffffffffffffffffffffffffffffffff1673ffffffffffffffffffffffffffffffffffffffff1681526020019081526020016000205473__SafeMath______________________________63a293d1e89091846040518363ffffffff1660e01b8152600401610793929190610be4565b60206040518083038186803b1580156107ab57600080fd5b505af41580156107bf573d6000803e3d6000fd5b505050506040513d601f19601f820116820180604052508101906107e39190610b58565b600460003373ffffffffffffffffffffffffffffffffffffffff1673ffffffffffffffffffffffffffffffffffffffff16815260200190815260200160002081905550600460008473ffffffffffffffffffffffffffffffffffffffff1673ffffffffffffffffffffffffffffffffffffffff1681526020019081526020016000205473__SafeMath______________________________63e6cb90139091846040518363ffffffff1660e01b81526004016108a0929190610be4565b60206040518083038186803b1580156108b857600080fd5b505af41580156108cc573d6000803e3d6000fd5b505050506040513d601f19601f820116820180604052508101906108f09190610b58565b600460008573ffffffffffffffffffffffffffffffffffffffff1673ffffffffffffffffffffffffffffffffffffffff168152602001908152602001600020819055508273ffffffffffffffffffffffffffffffffffffffff163373ffffffffffffffffffffffffffffffffffffffff167fddf252ad1be2c89b69c2b068fc378daa952ba7f163c4a11628f55a4df523b3ef846040516109909190610bc9565b60405180910390a36001905092915050565b6000600560008473ffffffffffffffffffffffffffffffffffffffff1673ffffffffffffffffffffffffffffffffffffffff16815260200190815260200160002060008373ffffffffffffffffffffffffffffffffffffffff1673ffffffffffffffffffffffffffffffffffffffff16815260200190815260200160002054905092915050565b600081359050610a3881610cb8565b92915050565b600081359050610a4d81610ccf565b92915050565b600081519050610a6281610ccf565b92915050565b600060208284031215610a7a57600080fd5b6000610a8884828501610a29565b91505092915050565b60008060408385031215610aa457600080fd5b6000610ab285828601610a29565b9250506020610ac385828601610a29565b9150509250929050565b600080600060608486031215610ae257600080fd5b6000610af086828701610a29565b9350506020610b0186828701610a29565b9250506040610b1286828701610a3e565b9150509250925092565b60008060408385031215610b2f57600080fd5b6000610b3d85828601610a29565b9250506020610b4e85828601610a3e565b9150509250929050565b600060208284031215610b6a57600080fd5b6000610b7884828501610a53565b91505092915050565b610b8a81610c53565b82525050565b610b9981610c7f565b82525050565b610ba881610c7f565b82525050565b6000602082019050610bc36000830184610b81565b92915050565b6000602082019050610bde6000830184610b90565b92915050565b6000604082019050610bf96000830185610b9f565b610c066020830184610b9f565b9392505050565b6000610c1882610c7f565b9150610c2383610c7f565b925082821015610c3657610c35610c89565b5b828203905092915050565b6000610c4c82610c5f565b9050919050565b60008115159050919050565b600073ffffffffffffffffffffffffffffffffffffffff82169050919050565b6000819050919050565b7f4e487b7100000000000000000000000000000000000000000000000000000000600052601160045260246000fd5b610cc181610c41565b8114610ccc57600080fd5b50565b610cd881610c7f565b8114610ce357600080fd5b5056fea264697066735822122090d4d3303c26080cc9435a561af05dbcefe32b48e2c6417eeaea9527c276f90764736f6c63430008010033",
  "immutableReferences": {},
  "source": "// https://eips.ethereum.org/EIPS/eip-20\r\n// SPDX-License-Identifier: MIT\r\npragma solidity >=0.5.0 <=0.8.1;\r\n\r\ninterface Token {\r\n    /// @notice Determines the total number of tokens created minus the balance of the contract owner\r\n    /// @return total total number of tokens in circulation\r\n    function totalSupply() external view returns(uint256 total);\r\n\r\n    /// @param _owner The address from which the balance will be retrieved\r\n    /// @return balance the balance\r\n    function balanceOf(address _owner) external view returns (uint256 balance);\r\n\r\n    /// @notice send `_value` token to `_to` from `msg.sender`\r\n    /// @param _to The address of the recipient\r\n    /// @param _value The amount of token to be transferred\r\n    /// @return success Whether the transfer was successful or not\r\n    function transfer(address _to, uint256 _value) external returns (bool success);\r\n\r\n    /// @notice send `_value` token to `_to` from `_from` on the condition it is approved by `_from`\r\n    /// @param _from The address of the sender\r\n    /// @param _to The address of the recipient\r\n    /// @param _value The amount of token to be transferred\r\n    /// @return success Whether the transfer was successful or not\r\n    function transferFrom(address _from, address _to, uint256 _value) external returns (bool success);\r\n\r\n    /// @notice `msg.sender` approves `_addr` to spend `_value` tokens\r\n    /// @param _spender The address of the account able to transfer the tokens\r\n    /// @param _value The amount of wei to be approved for transfer\r\n    /// @return success Whether the approval was successful or not\r\n    function approve(address _spender, uint256 _value) external returns (bool success);\r\n\r\n    /// @param _owner The address of the account owning tokens\r\n    /// @param _spender The address of the account able to transfer the tokens\r\n    /// @return remaining Amount of remaining tokens allowed to spent\r\n    function allowance(address _owner, address _spender) external view returns (uint256 remaining);\r\n\r\n    event Transfer(address indexed _from, address indexed _to, uint256 _value);\r\n    event Approval(address indexed _owner, address indexed _spender, uint256 _value);\r\n}\r\n\r\nlibrary SafeMath {\r\n    function safeAdd(uint a, uint b) public pure returns (uint c) {\r\n      c = a + b;\r\n      require(c >= a);\r\n    }\r\n    \r\n    function safeSub(uint a, uint b) public pure returns (uint c) {\r\n      require(b <= a); \r\n      c = a - b; } \r\n    \r\n    function safeMul(uint a, uint b) public pure returns (uint c) { \r\n      c = a * b; \r\n      require(a == 0 || c / a == b);\r\n    } \r\n    \r\n    function safeDiv(uint a, uint b) public pure returns (uint c) { \r\n      require(b > 0);\r\n      c = a / b;\r\n    }\r\n}\r\n\r\ncontract MatthewToken is Token {\r\n    //Attach safemath functions to uin256 variables\r\n    using SafeMath for uint256;\r\n    \r\n    //Three optional variables\r\n    string internal name;\r\n    string internal symbol;\r\n    uint8 internal decimals;\r\n    \r\n    //Total number of tokens\r\n    uint256 internal _totalSupply;\r\n    \r\n    //Mapping of addresses to balances\r\n    mapping(address => uint256) balances;\r\n\r\n    //Mapping of owner addresses to a mapping of spenders and allowed amounts\r\n    mapping(address => mapping(address => uint256)) allowed;\r\n    \r\n    constructor (string memory _name, string memory _symbol, uint8 _decimals, uint256 _initialOwnerBalance) {\r\n        name = _name;\r\n        symbol = _symbol;\r\n        decimals = _decimals;\r\n        _totalSupply = _initialOwnerBalance;\r\n        balances[msg.sender] = _initialOwnerBalance;\r\n        \r\n        emit Transfer(address(0), msg.sender, _totalSupply);\r\n    }\r\n  \r\n  // Six mandatory functions\r\n\r\n  //Determines the total number of tokens created minus the balance of the contract owner\r\n  function totalSupply() public override view returns(uint256 total) {\r\n    return _totalSupply - balances[address(0)];\r\n  }\r\n\r\n  //Returns the number of tokens that a particular address has\r\n  function balanceOf(address _owner) public override view returns(uint256 balance) {\r\n    return balances[_owner];\r\n  }\r\n\r\n  //Returns the number of tokens allowed by the owner to be spent by the spender\r\n  function allowance(address _owner, address _spender) public override view returns(uint256 remaining) {\r\n    return allowed[_owner][_spender];\r\n  }\r\n\r\n  //Msg.sender can give their approval to an address to spend a given amount of their tokens on their behalf\r\n  function approve (address _spender, uint256 _value) public override returns(bool success) {\r\n    allowed[msg.sender][_spender] = _value;\r\n    emit Approval(msg.sender, _spender, _value);\r\n    return true;\r\n  }\r\n\r\n  //Msg.sender can send a given amount of tokens to another address\r\n  //If the requested amount is greater than the owner's balance, an error will be thrown\r\n  function transfer(address _to, uint256 _value) public override returns (bool success) {\r\n    balances[msg.sender] = balances[msg.sender].safeSub(_value);\r\n    balances[_to] = balances[_to].safeAdd( _value);\r\n\r\n    emit Transfer(msg.sender, _to, _value);\r\n    return true;\r\n  }\r\n\r\n  //This function helps to automate transfers to and from specfic accounts\r\n  //If the requested value is greater than what is allowed by the owner, an error will be thrown\r\n  function transferFrom (address _from, address _to, uint256 _value) public override\r\n\treturns (bool success) {\r\n    balances[_from] = balances[_from].safeSub(_value);\r\n    allowed[_from][msg.sender] = allowed[_from][msg.sender].safeSub(_value);\r\n    balances[_to] = balances[_to].safeAdd(_value);\r\n        \r\n\temit Transfer(_from, _to, _value);\r\n    return true;\r\n  }\r\n}",
  "sourcePath": "C:/Users/Matthew Watman/Desktop/Dev/IOTA/erc20-token/contracts/ERC20.sol",
  "compiler": {
    "name": "solc",
    "version": "0.8.1+commit.df193b15.Emscripten.clang"
  },
  "schemaVersion": "3.3.3",
  "updatedAt": "2021-03-06T17:51:39.929Z",
  "devdoc": {
    "kind": "dev",
    "methods": {
      "allowance(address,address)": {
        "params": {
          "_owner": "The address of the account owning tokens",
          "_spender": "The address of the account able to transfer the tokens"
        },
        "returns": {
          "remaining": "Amount of remaining tokens allowed to spent"
        }
      },
      "approve(address,uint256)": {
        "params": {
          "_spender": "The address of the account able to transfer the tokens",
          "_value": "The amount of wei to be approved for transfer"
        },
        "returns": {
          "success": "Whether the approval was successful or not"
        }
      },
      "balanceOf(address)": {
        "params": {
          "_owner": "The address from which the balance will be retrieved"
        },
        "returns": {
          "balance": "the balance"
        }
      },
      "totalSupply()": {
        "returns": {
          "total": "total number of tokens in circulation"
        }
      },
      "transfer(address,uint256)": {
        "params": {
          "_to": "The address of the recipient",
          "_value": "The amount of token to be transferred"
        },
        "returns": {
          "success": "Whether the transfer was successful or not"
        }
      },
      "transferFrom(address,address,uint256)": {
        "params": {
          "_from": "The address of the sender",
          "_to": "The address of the recipient",
          "_value": "The amount of token to be transferred"
        },
        "returns": {
          "success": "Whether the transfer was successful or not"
        }
      }
    },
    "version": 1
  },
  "userdoc": {
    "kind": "user",
    "methods": {
      "approve(address,uint256)": {
        "notice": "`msg.sender` approves `_addr` to spend `_value` tokens"
      },
      "totalSupply()": {
        "notice": "Determines the total number of tokens created minus the balance of the contract owner"
      },
      "transfer(address,uint256)": {
        "notice": "send `_value` token to `_to` from `msg.sender`"
      },
      "transferFrom(address,address,uint256)": {
        "notice": "send `_value` token to `_to` from `_from` on the condition it is approved by `_from`"
      }
    },
    "version": 1
  }
}