{
  "contractName": "MatthewToken",
  "abi": [
    {
      "inputs": [],
      "stateMutability": "nonpayable",
      "type": "constructor"
    },
    {
      "anonymous": false,
      "inputs": [
        {
          "indexed": true,
          "internalType": "address",
          "name": "_owner",
          "type": "address"
        },
        {
          "indexed": true,
          "internalType": "address",
          "name": "_spender",
          "type": "address"
        },
        {
          "indexed": false,
          "internalType": "uint256",
          "name": "_value",
          "type": "uint256"
        }
      ],
      "name": "Approval",
      "type": "event"
    },
    {
      "anonymous": false,
      "inputs": [
        {
          "indexed": true,
          "internalType": "address",
          "name": "_from",
          "type": "address"
        },
        {
          "indexed": true,
          "internalType": "address",
          "name": "_to",
          "type": "address"
        },
        {
          "indexed": false,
          "internalType": "uint256",
          "name": "_value",
          "type": "uint256"
        }
      ],
      "name": "Transfer",
      "type": "event"
    },
    {
      "inputs": [],
      "name": "_totalSupply",
      "outputs": [
        {
          "internalType": "uint256",
          "name": "",
          "type": "uint256"
        }
      ],
      "stateMutability": "view",
      "type": "function",
      "constant": true
    },
    {
      "inputs": [],
      "name": "decimals",
      "outputs": [
        {
          "internalType": "uint8",
          "name": "",
          "type": "uint8"
        }
      ],
      "stateMutability": "view",
      "type": "function",
      "constant": true
    },
    {
      "inputs": [],
      "name": "name",
      "outputs": [
        {
          "internalType": "string",
          "name": "",
          "type": "string"
        }
      ],
      "stateMutability": "view",
      "type": "function",
      "constant": true
    },
    {
      "inputs": [
        {
          "internalType": "uint256",
          "name": "a",
          "type": "uint256"
        },
        {
          "internalType": "uint256",
          "name": "b",
          "type": "uint256"
        }
      ],
      "name": "safeAdd",
      "outputs": [
        {
          "internalType": "uint256",
          "name": "c",
          "type": "uint256"
        }
      ],
      "stateMutability": "pure",
      "type": "function",
      "constant": true
    },
    {
      "inputs": [
        {
          "internalType": "uint256",
          "name": "a",
          "type": "uint256"
        },
        {
          "internalType": "uint256",
          "name": "b",
          "type": "uint256"
        }
      ],
      "name": "safeDiv",
      "outputs": [
        {
          "internalType": "uint256",
          "name": "c",
          "type": "uint256"
        }
      ],
      "stateMutability": "pure",
      "type": "function",
      "constant": true
    },
    {
      "inputs": [
        {
          "internalType": "uint256",
          "name": "a",
          "type": "uint256"
        },
        {
          "internalType": "uint256",
          "name": "b",
          "type": "uint256"
        }
      ],
      "name": "safeMul",
      "outputs": [
        {
          "internalType": "uint256",
          "name": "c",
          "type": "uint256"
        }
      ],
      "stateMutability": "pure",
      "type": "function",
      "constant": true
    },
    {
      "inputs": [
        {
          "internalType": "uint256",
          "name": "a",
          "type": "uint256"
        },
        {
          "internalType": "uint256",
          "name": "b",
          "type": "uint256"
        }
      ],
      "name": "safeSub",
      "outputs": [
        {
          "internalType": "uint256",
          "name": "c",
          "type": "uint256"
        }
      ],
      "stateMutability": "pure",
      "type": "function",
      "constant": true
    },
    {
      "inputs": [],
      "name": "symbol",
      "outputs": [
        {
          "internalType": "string",
          "name": "",
          "type": "string"
        }
      ],
      "stateMutability": "view",
      "type": "function",
      "constant": true
    },
    {
      "inputs": [],
      "name": "totalSupply",
      "outputs": [
        {
          "internalType": "uint256",
          "name": "total",
          "type": "uint256"
        }
      ],
      "stateMutability": "view",
      "type": "function",
      "constant": true
    },
    {
      "inputs": [
        {
          "internalType": "address",
          "name": "_owner",
          "type": "address"
        }
      ],
      "name": "balanceOf",
      "outputs": [
        {
          "internalType": "uint256",
          "name": "balance",
          "type": "uint256"
        }
      ],
      "stateMutability": "view",
      "type": "function",
      "constant": true
    },
    {
      "inputs": [
        {
          "internalType": "address",
          "name": "_owner",
          "type": "address"
        },
        {
          "internalType": "address",
          "name": "_spender",
          "type": "address"
        }
      ],
      "name": "allowance",
      "outputs": [
        {
          "internalType": "uint256",
          "name": "remaining",
          "type": "uint256"
        }
      ],
      "stateMutability": "view",
      "type": "function",
      "constant": true
    },
    {
      "inputs": [
        {
          "internalType": "address",
          "name": "_spender",
          "type": "address"
        },
        {
          "internalType": "uint256",
          "name": "_value",
          "type": "uint256"
        }
      ],
      "name": "approve",
      "outputs": [
        {
          "internalType": "bool",
          "name": "success",
          "type": "bool"
        }
      ],
      "stateMutability": "nonpayable",
      "type": "function"
    },
    {
      "inputs": [
        {
          "internalType": "address",
          "name": "_to",
          "type": "address"
        },
        {
          "internalType": "uint256",
          "name": "_value",
          "type": "uint256"
        }
      ],
      "name": "transfer",
      "outputs": [
        {
          "internalType": "bool",
          "name": "success",
          "type": "bool"
        }
      ],
      "stateMutability": "nonpayable",
      "type": "function"
    },
    {
      "inputs": [
        {
          "internalType": "address",
          "name": "_from",
          "type": "address"
        },
        {
          "internalType": "address",
          "name": "_to",
          "type": "address"
        },
        {
          "internalType": "uint256",
          "name": "_value",
          "type": "uint256"
        }
      ],
      "name": "transferFrom",
      "outputs": [
        {
          "internalType": "bool",
          "name": "success",
          "type": "bool"
        }
      ],
      "stateMutability": "nonpayable",
      "type": "function"
    }
  ],
  "bytecode": "0x60806040523480156200001157600080fd5b506040518060400160405280600c81526020017f4d617474686577546f6b656e0000000000000000000000000000000000000000815250600090805190602001906200005f92919062000192565b506040518060400160405280600381526020017f4d4a57000000000000000000000000000000000000000000000000000000000081525060019080519060200190620000ad92919062000192565b506012600260006101000a81548160ff021916908360ff1602179055506a52b7d2dcc80cd2e4000000600381905550600354600460003373ffffffffffffffffffffffffffffffffffffffff1673ffffffffffffffffffffffffffffffffffffffff168152602001908152602001600020819055503373ffffffffffffffffffffffffffffffffffffffff16600073ffffffffffffffffffffffffffffffffffffffff167fddf252ad1be2c89b69c2b068fc378daa952ba7f163c4a11628f55a4df523b3ef60035460405162000184919062000253565b60405180910390a3620002df565b828054620001a0906200027a565b90600052602060002090601f016020900481019282620001c4576000855562000210565b82601f10620001df57805160ff191683800117855562000210565b8280016001018555821562000210579182015b828111156200020f578251825591602001919060010190620001f2565b5b5090506200021f919062000223565b5090565b5b808211156200023e57600081600090555060010162000224565b5090565b6200024d8162000270565b82525050565b60006020820190506200026a600083018462000242565b92915050565b6000819050919050565b600060028204905060018216806200029357607f821691505b60208210811415620002aa57620002a9620002b0565b5b50919050565b7f4e487b7100000000000000000000000000000000000000000000000000000000600052602260045260246000fd5b61105580620002ef6000396000f3fe608060405234801561001057600080fd5b50600436106100ea5760003560e01c806395d89b411161008c578063b5931f7c11610066578063b5931f7c14610275578063d05c78da146102a5578063dd62ed3e146102d5578063e6cb901314610305576100ea565b806395d89b41146101f7578063a293d1e814610215578063a9059cbb14610245576100ea565b806323b872dd116100c857806323b872dd1461015b578063313ce5671461018b5780633eaaf86b146101a957806370a08231146101c7576100ea565b806306fdde03146100ef578063095ea7b31461010d57806318160ddd1461013d575b600080fd5b6100f7610335565b6040516101049190610d10565b60405180910390f35b61012760048036038101906101229190610c17565b6103c3565b6040516101349190610cf5565b60405180910390f35b6101456104b5565b6040516101529190610d32565b60405180910390f35b61017560048036038101906101709190610bc8565b610509565b6040516101829190610cf5565b60405180910390f35b610193610799565b6040516101a09190610d4d565b60405180910390f35b6101b16107ac565b6040516101be9190610d32565b60405180910390f35b6101e160048036038101906101dc9190610b63565b6107b2565b6040516101ee9190610d32565b60405180910390f35b6101ff6107fb565b60405161020c9190610d10565b60405180910390f35b61022f600480360381019061022a9190610c53565b610889565b60405161023c9190610d32565b60405180910390f35b61025f600480360381019061025a9190610c17565b6108ac565b60405161026c9190610cf5565b60405180910390f35b61028f600480360381019061028a9190610c53565b610a35565b60405161029c9190610d32565b60405180910390f35b6102bf60048036038101906102ba9190610c53565b610a57565b6040516102cc9190610d32565b60405180910390f35b6102ef60048036038101906102ea9190610b8c565b610a8f565b6040516102fc9190610d32565b60405180910390f35b61031f600480360381019061031a9190610c53565b610b16565b60405161032c9190610d32565b60405180910390f35b6000805461034290610f21565b80601f016020809104026020016040519081016040528092919081815260200182805461036e90610f21565b80156103bb5780601f10610390576101008083540402835291602001916103bb565b820191906000526020600020905b81548152906001019060200180831161039e57829003601f168201915b505050505081565b600081600560003373ffffffffffffffffffffffffffffffffffffffff1673ffffffffffffffffffffffffffffffffffffffff16815260200190815260200160002060008573ffffffffffffffffffffffffffffffffffffffff1673ffffffffffffffffffffffffffffffffffffffff168152602001908152602001600020819055508273ffffffffffffffffffffffffffffffffffffffff163373ffffffffffffffffffffffffffffffffffffffff167f8c5be1e5ebec7d5bd14f71427d1e84f3dd0314c0f7b2291e5b200ac8c7c3b925846040516104a39190610d32565b60405180910390a36001905092915050565b6000600460008073ffffffffffffffffffffffffffffffffffffffff1673ffffffffffffffffffffffffffffffffffffffff168152602001908152602001600020546003546105049190610e65565b905090565b6000610554600460008673ffffffffffffffffffffffffffffffffffffffff1673ffffffffffffffffffffffffffffffffffffffff1681526020019081526020016000205483610889565b600460008673ffffffffffffffffffffffffffffffffffffffff1673ffffffffffffffffffffffffffffffffffffffff1681526020019081526020016000208190555061061d600560008673ffffffffffffffffffffffffffffffffffffffff1673ffffffffffffffffffffffffffffffffffffffff16815260200190815260200160002060003373ffffffffffffffffffffffffffffffffffffffff1673ffffffffffffffffffffffffffffffffffffffff1681526020019081526020016000205483610889565b600560008673ffffffffffffffffffffffffffffffffffffffff1673ffffffffffffffffffffffffffffffffffffffff16815260200190815260200160002060003373ffffffffffffffffffffffffffffffffffffffff1673ffffffffffffffffffffffffffffffffffffffff168152602001908152602001600020819055506106e6600460008573ffffffffffffffffffffffffffffffffffffffff1673ffffffffffffffffffffffffffffffffffffffff1681526020019081526020016000205483610b16565b600460008573ffffffffffffffffffffffffffffffffffffffff1673ffffffffffffffffffffffffffffffffffffffff168152602001908152602001600020819055508273ffffffffffffffffffffffffffffffffffffffff168473ffffffffffffffffffffffffffffffffffffffff167fddf252ad1be2c89b69c2b068fc378daa952ba7f163c4a11628f55a4df523b3ef846040516107869190610d32565b60405180910390a3600190509392505050565b600260009054906101000a900460ff1681565b60035481565b6000600460008373ffffffffffffffffffffffffffffffffffffffff1673ffffffffffffffffffffffffffffffffffffffff168152602001908152602001600020549050919050565b6001805461080890610f21565b80601f016020809104026020016040519081016040528092919081815260200182805461083490610f21565b80156108815780601f1061085657610100808354040283529160200191610881565b820191906000526020600020905b81548152906001019060200180831161086457829003601f168201915b505050505081565b60008282111561089857600080fd5b81836108a49190610e65565b905092915050565b60006108f7600460003373ffffffffffffffffffffffffffffffffffffffff1673ffffffffffffffffffffffffffffffffffffffff1681526020019081526020016000205483610889565b600460003373ffffffffffffffffffffffffffffffffffffffff1673ffffffffffffffffffffffffffffffffffffffff16815260200190815260200160002081905550610983600460008573ffffffffffffffffffffffffffffffffffffffff1673ffffffffffffffffffffffffffffffffffffffff1681526020019081526020016000205483610b16565b600460008573ffffffffffffffffffffffffffffffffffffffff1673ffffffffffffffffffffffffffffffffffffffff168152602001908152602001600020819055508273ffffffffffffffffffffffffffffffffffffffff163373ffffffffffffffffffffffffffffffffffffffff167fddf252ad1be2c89b69c2b068fc378daa952ba7f163c4a11628f55a4df523b3ef84604051610a239190610d32565b60405180910390a36001905092915050565b6000808211610a4357600080fd5b8183610a4f9190610dda565b905092915050565b60008183610a659190610e0b565b90506000831480610a805750818382610a7e9190610dda565b145b610a8957600080fd5b92915050565b6000600560008473ffffffffffffffffffffffffffffffffffffffff1673ffffffffffffffffffffffffffffffffffffffff16815260200190815260200160002060008373ffffffffffffffffffffffffffffffffffffffff1673ffffffffffffffffffffffffffffffffffffffff16815260200190815260200160002054905092915050565b60008183610b249190610d84565b905082811015610b3357600080fd5b92915050565b600081359050610b4881610ff1565b92915050565b600081359050610b5d81611008565b92915050565b600060208284031215610b7557600080fd5b6000610b8384828501610b39565b91505092915050565b60008060408385031215610b9f57600080fd5b6000610bad85828601610b39565b9250506020610bbe85828601610b39565b9150509250929050565b600080600060608486031215610bdd57600080fd5b6000610beb86828701610b39565b9350506020610bfc86828701610b39565b9250506040610c0d86828701610b4e565b9150509250925092565b60008060408385031215610c2a57600080fd5b6000610c3885828601610b39565b9250506020610c4985828601610b4e565b9150509250929050565b60008060408385031215610c6657600080fd5b6000610c7485828601610b4e565b9250506020610c8585828601610b4e565b9150509250929050565b610c9881610eab565b82525050565b6000610ca982610d68565b610cb38185610d73565b9350610cc3818560208601610eee565b610ccc81610fe0565b840191505092915050565b610ce081610ed7565b82525050565b610cef81610ee1565b82525050565b6000602082019050610d0a6000830184610c8f565b92915050565b60006020820190508181036000830152610d2a8184610c9e565b905092915050565b6000602082019050610d476000830184610cd7565b92915050565b6000602082019050610d626000830184610ce6565b92915050565b600081519050919050565b600082825260208201905092915050565b6000610d8f82610ed7565b9150610d9a83610ed7565b9250827fffffffffffffffffffffffffffffffffffffffffffffffffffffffffffffffff03821115610dcf57610dce610f53565b5b828201905092915050565b6000610de582610ed7565b9150610df083610ed7565b925082610e0057610dff610f82565b5b828204905092915050565b6000610e1682610ed7565b9150610e2183610ed7565b9250817fffffffffffffffffffffffffffffffffffffffffffffffffffffffffffffffff0483118215151615610e5a57610e59610f53565b5b828202905092915050565b6000610e7082610ed7565b9150610e7b83610ed7565b925082821015610e8e57610e8d610f53565b5b828203905092915050565b6000610ea482610eb7565b9050919050565b60008115159050919050565b600073ffffffffffffffffffffffffffffffffffffffff82169050919050565b6000819050919050565b600060ff82169050919050565b60005b83811015610f0c578082015181840152602081019050610ef1565b83811115610f1b576000848401525b50505050565b60006002820490506001821680610f3957607f821691505b60208210811415610f4d57610f4c610fb1565b5b50919050565b7f4e487b7100000000000000000000000000000000000000000000000000000000600052601160045260246000fd5b7f4e487b7100000000000000000000000000000000000000000000000000000000600052601260045260246000fd5b7f4e487b7100000000000000000000000000000000000000000000000000000000600052602260045260246000fd5b6000601f19601f8301169050919050565b610ffa81610e99565b811461100557600080fd5b50565b61101181610ed7565b811461101c57600080fd5b5056fea264697066735822122060c78a93e6d0d1b368b6f3327aa7a3d355e2c35858d6289cfa367c5e0ee94e0f64736f6c63430008010033",
  "immutableReferences": {},
  "source": "// https://eips.ethereum.org/EIPS/eip-20\r\n// SPDX-License-Identifier: MIT\r\npragma solidity >=0.5.0 <=0.8.1;\r\n\r\ninterface Token {\r\n    /// @notice Determines the total number of tokens created minus the balance of the contract owner\r\n    /// @return total total number of tokens in circulation\r\n    function totalSupply() external view returns(uint256 total);\r\n\r\n    /// @param _owner The address from which the balance will be retrieved\r\n    /// @return balance the balance\r\n    function balanceOf(address _owner) external view returns (uint256 balance);\r\n\r\n    /// @notice send `_value` token to `_to` from `msg.sender`\r\n    /// @param _to The address of the recipient\r\n    /// @param _value The amount of token to be transferred\r\n    /// @return success Whether the transfer was successful or not\r\n    function transfer(address _to, uint256 _value) external returns (bool success);\r\n\r\n    /// @notice send `_value` token to `_to` from `_from` on the condition it is approved by `_from`\r\n    /// @param _from The address of the sender\r\n    /// @param _to The address of the recipient\r\n    /// @param _value The amount of token to be transferred\r\n    /// @return success Whether the transfer was successful or not\r\n    function transferFrom(address _from, address _to, uint256 _value) external returns (bool success);\r\n\r\n    /// @notice `msg.sender` approves `_addr` to spend `_value` tokens\r\n    /// @param _spender The address of the account able to transfer the tokens\r\n    /// @param _value The amount of wei to be approved for transfer\r\n    /// @return success Whether the approval was successful or not\r\n    function approve(address _spender, uint256 _value) external returns (bool success);\r\n\r\n    /// @param _owner The address of the account owning tokens\r\n    /// @param _spender The address of the account able to transfer the tokens\r\n    /// @return remaining Amount of remaining tokens allowed to spent\r\n    function allowance(address _owner, address _spender) external view returns (uint256 remaining);\r\n\r\n    event Transfer(address indexed _from, address indexed _to, uint256 _value);\r\n    event Approval(address indexed _owner, address indexed _spender, uint256 _value);\r\n}\r\n\r\ncontract SafeMath {\r\n    function safeAdd(uint a, uint b) public pure returns (uint c) {\r\n      c = a + b;\r\n      require(c >= a);\r\n    }\r\n    \r\n    function safeSub(uint a, uint b) public pure returns (uint c) {\r\n      require(b <= a); \r\n      c = a - b; } \r\n    \r\n    function safeMul(uint a, uint b) public pure returns (uint c) { \r\n      c = a * b; \r\n      require(a == 0 || c / a == b);\r\n    } \r\n    \r\n    function safeDiv(uint a, uint b) public pure returns (uint c) { \r\n      require(b > 0);\r\n      c = a / b;\r\n    }\r\n}\r\n\r\ncontract MatthewToken is Token, SafeMath {\r\n    //Three optional variables\r\n    string public name;\r\n    string public symbol;\r\n    uint8 public decimals;\r\n    \r\n    //Total number of tokens\r\n    uint256 public _totalSupply;\r\n    \r\n    //Mapping of addresses to balances\r\n    mapping(address => uint256) balances;\r\n\r\n    //Mapping of owner addresses to a mapping of spenders and allowed amounts\r\n    mapping(address => mapping(address => uint256)) allowed;\r\n    \r\n    constructor () {\r\n        name = \"MatthewToken\";\r\n        symbol = \"MJW\";\r\n        decimals = 18;\r\n        _totalSupply = 100000000000000000000000000;\r\n        \r\n        balances[msg.sender] = _totalSupply;\r\n        emit Transfer(address(0), msg.sender, _totalSupply);\r\n    }\r\n  \r\n  // Six mandatory functions\r\n\r\n  //Determines the total number of tokens created minus the balance of the contract owner\r\n  function totalSupply() public override view returns(uint256 total) {\r\n    return _totalSupply - balances[address(0)];\r\n  }\r\n\r\n  //Returns the number of tokens that a particular address has\r\n  function balanceOf(address _owner) public override view returns(uint256 balance) {\r\n    return balances[_owner];\r\n  }\r\n\r\n  //Returns the number of tokens allowed by the owner to be spent by the spender\r\n  function allowance(address _owner, address _spender) public override view returns(uint256 remaining) {\r\n    return allowed[_owner][_spender];\r\n  }\r\n\r\n  //Contract owner can give their approval to the user to collect the required number of tokens from the contract's address\r\n  function approve (address _spender, uint256 _value) public override returns(bool success) {\r\n    allowed[msg.sender][_spender] = _value;\r\n    emit Approval(msg.sender, _spender, _value);\r\n    return true;\r\n  }\r\n\r\n  //Contract owner can send a given amount of tokens to another address\r\n  //If the requested amount is greater than the owner's balance, an error will be thrown\r\n  function transfer(address _to, uint256 _value) public override returns (bool success) {\r\n    balances[msg.sender] = safeSub(balances[msg.sender], _value);\r\n    balances[_to] = safeAdd(balances[_to], _value);\r\n\r\n    emit Transfer(msg.sender, _to, _value);\r\n    return true;\r\n  }\r\n\r\n  //This function helps to automate transfers to and from specfic accounts\r\n  //If the requested value is greater than what is allowed by the owner, an error will be thrown\r\n  function transferFrom (address _from, address _to, uint256 _value) public override\r\n\treturns (bool success) {\r\n    balances[_from] = safeSub(balances[_from], _value);\r\n    allowed[_from][msg.sender] = safeSub(allowed[_from][msg.sender], _value);\r\n    balances[_to] = safeAdd(balances[_to], _value);\r\n        \r\n\temit Transfer(_from, _to, _value);\r\n    return true;\r\n  }\r\n}",
  "sourcePath": "C:/Users/Matthew Watman/Desktop/Dev/IOTA/erc20-token/contracts/ERC20.sol",
  "compiler": {
    "name": "solc",
    "version": "0.8.1+commit.df193b15.Emscripten.clang"
  },
  "schemaVersion": "3.3.3",
  "updatedAt": "2021-03-02T16:53:16.123Z",
  "networkType": "ethereum",
  "devdoc": {
    "kind": "dev",
    "methods": {
      "allowance(address,address)": {
        "params": {
          "_owner": "The address of the account owning tokens",
          "_spender": "The address of the account able to transfer the tokens"
        },
        "returns": {
          "remaining": "Amount of remaining tokens allowed to spent"
        }
      },
      "approve(address,uint256)": {
        "params": {
          "_spender": "The address of the account able to transfer the tokens",
          "_value": "The amount of wei to be approved for transfer"
        },
        "returns": {
          "success": "Whether the approval was successful or not"
        }
      },
      "balanceOf(address)": {
        "params": {
          "_owner": "The address from which the balance will be retrieved"
        },
        "returns": {
          "balance": "the balance"
        }
      },
      "totalSupply()": {
        "returns": {
          "total": "total number of tokens in circulation"
        }
      },
      "transfer(address,uint256)": {
        "params": {
          "_to": "The address of the recipient",
          "_value": "The amount of token to be transferred"
        },
        "returns": {
          "success": "Whether the transfer was successful or not"
        }
      },
      "transferFrom(address,address,uint256)": {
        "params": {
          "_from": "The address of the sender",
          "_to": "The address of the recipient",
          "_value": "The amount of token to be transferred"
        },
        "returns": {
          "success": "Whether the transfer was successful or not"
        }
      }
    },
    "version": 1
  },
  "userdoc": {
    "kind": "user",
    "methods": {
      "approve(address,uint256)": {
        "notice": "`msg.sender` approves `_addr` to spend `_value` tokens"
      },
      "totalSupply()": {
        "notice": "Determines the total number of tokens created minus the balance of the contract owner"
      },
      "transfer(address,uint256)": {
        "notice": "send `_value` token to `_to` from `msg.sender`"
      },
      "transferFrom(address,address,uint256)": {
        "notice": "send `_value` token to `_to` from `_from` on the condition it is approved by `_from`"
      }
    },
    "version": 1
  }
}