{
  "contractName": "SafeMath",
  "abi": [
    {
      "inputs": [
        {
          "internalType": "uint256",
          "name": "a",
          "type": "uint256"
        },
        {
          "internalType": "uint256",
          "name": "b",
          "type": "uint256"
        }
      ],
      "name": "safeAdd",
      "outputs": [
        {
          "internalType": "uint256",
          "name": "c",
          "type": "uint256"
        }
      ],
      "stateMutability": "pure",
      "type": "function"
    },
    {
      "inputs": [
        {
          "internalType": "uint256",
          "name": "a",
          "type": "uint256"
        },
        {
          "internalType": "uint256",
          "name": "b",
          "type": "uint256"
        }
      ],
      "name": "safeSub",
      "outputs": [
        {
          "internalType": "uint256",
          "name": "c",
          "type": "uint256"
        }
      ],
      "stateMutability": "pure",
      "type": "function"
    },
    {
      "inputs": [
        {
          "internalType": "uint256",
          "name": "a",
          "type": "uint256"
        },
        {
          "internalType": "uint256",
          "name": "b",
          "type": "uint256"
        }
      ],
      "name": "safeMul",
      "outputs": [
        {
          "internalType": "uint256",
          "name": "c",
          "type": "uint256"
        }
      ],
      "stateMutability": "pure",
      "type": "function"
    },
    {
      "inputs": [
        {
          "internalType": "uint256",
          "name": "a",
          "type": "uint256"
        },
        {
          "internalType": "uint256",
          "name": "b",
          "type": "uint256"
        }
      ],
      "name": "safeDiv",
      "outputs": [
        {
          "internalType": "uint256",
          "name": "c",
          "type": "uint256"
        }
      ],
      "stateMutability": "pure",
      "type": "function"
    }
  ],
  "bytecode": "0x608060405234801561001057600080fd5b506103f6806100206000396000f3fe608060405234801561001057600080fd5b506004361061004c5760003560e01c8063a293d1e814610051578063b5931f7c14610081578063d05c78da146100b1578063e6cb9013146100e1575b600080fd5b61006b600480360381019061006691906101c6565b610111565b6040516100789190610211565b60405180910390f35b61009b600480360381019061009691906101c6565b610134565b6040516100a89190610211565b60405180910390f35b6100cb60048036038101906100c691906101c6565b610156565b6040516100d89190610211565b60405180910390f35b6100fb60048036038101906100f691906101c6565b61018e565b6040516101089190610211565b60405180910390f35b60008282111561012057600080fd5b818361012c919061030d565b905092915050565b600080821161014257600080fd5b818361014e9190610282565b905092915050565b6000818361016491906102b3565b9050600083148061017f575081838261017d9190610282565b145b61018857600080fd5b92915050565b6000818361019c919061022c565b9050828110156101ab57600080fd5b92915050565b6000813590506101c0816103a9565b92915050565b600080604083850312156101d957600080fd5b60006101e7858286016101b1565b92505060206101f8858286016101b1565b9150509250929050565b61020b81610341565b82525050565b60006020820190506102266000830184610202565b92915050565b600061023782610341565b915061024283610341565b9250827fffffffffffffffffffffffffffffffffffffffffffffffffffffffffffffffff038211156102775761027661034b565b5b828201905092915050565b600061028d82610341565b915061029883610341565b9250826102a8576102a761037a565b5b828204905092915050565b60006102be82610341565b91506102c983610341565b9250817fffffffffffffffffffffffffffffffffffffffffffffffffffffffffffffffff04831182151516156103025761030161034b565b5b828202905092915050565b600061031882610341565b915061032383610341565b9250828210156103365761033561034b565b5b828203905092915050565b6000819050919050565b7f4e487b7100000000000000000000000000000000000000000000000000000000600052601160045260246000fd5b7f4e487b7100000000000000000000000000000000000000000000000000000000600052601260045260246000fd5b6103b281610341565b81146103bd57600080fd5b5056fea2646970667358221220a247600c331fc35699519eeb3b084d3bfc4025ecb918c72cc5555066edd9410b64736f6c63430008010033",
  "immutableReferences": {},
  "source": "// https://eips.ethereum.org/EIPS/eip-20\r\n// SPDX-License-Identifier: MIT\r\npragma solidity >=0.5.0 <=0.8.1;\r\n\r\ninterface Token {\r\n    /// @notice Determines the total number of tokens created minus the balance of the contract owner\r\n    /// @return total total number of tokens in circulation\r\n    function totalSupply() external view returns(uint256 total);\r\n\r\n    /// @param _owner The address from which the balance will be retrieved\r\n    /// @return balance the balance\r\n    function balanceOf(address _owner) external view returns (uint256 balance);\r\n\r\n    /// @notice send `_value` token to `_to` from `msg.sender`\r\n    /// @param _to The address of the recipient\r\n    /// @param _value The amount of token to be transferred\r\n    /// @return success Whether the transfer was successful or not\r\n    function transfer(address _to, uint256 _value) external returns (bool success);\r\n\r\n    /// @notice send `_value` token to `_to` from `_from` on the condition it is approved by `_from`\r\n    /// @param _from The address of the sender\r\n    /// @param _to The address of the recipient\r\n    /// @param _value The amount of token to be transferred\r\n    /// @return success Whether the transfer was successful or not\r\n    function transferFrom(address _from, address _to, uint256 _value) external returns (bool success);\r\n\r\n    /// @notice `msg.sender` approves `_addr` to spend `_value` tokens\r\n    /// @param _spender The address of the account able to transfer the tokens\r\n    /// @param _value The amount of wei to be approved for transfer\r\n    /// @return success Whether the approval was successful or not\r\n    function approve(address _spender, uint256 _value) external returns (bool success);\r\n\r\n    /// @param _owner The address of the account owning tokens\r\n    /// @param _spender The address of the account able to transfer the tokens\r\n    /// @return remaining Amount of remaining tokens allowed to spent\r\n    function allowance(address _owner, address _spender) external view returns (uint256 remaining);\r\n\r\n    event Transfer(address indexed _from, address indexed _to, uint256 _value);\r\n    event Approval(address indexed _owner, address indexed _spender, uint256 _value);\r\n}\r\n\r\ncontract SafeMath {\r\n    function safeAdd(uint a, uint b) public pure returns (uint c) {\r\n      c = a + b;\r\n      require(c >= a);\r\n    }\r\n    \r\n    function safeSub(uint a, uint b) public pure returns (uint c) {\r\n      require(b <= a); \r\n      c = a - b; } \r\n    \r\n    function safeMul(uint a, uint b) public pure returns (uint c) { \r\n      c = a * b; \r\n      require(a == 0 || c / a == b);\r\n    } \r\n    \r\n    function safeDiv(uint a, uint b) public pure returns (uint c) { \r\n      require(b > 0);\r\n      c = a / b;\r\n    }\r\n}\r\n\r\ncontract MatthewToken is Token, SafeMath {\r\n    //Three optional variables\r\n    string public name;\r\n    string public symbol;\r\n    uint8 public decimals;\r\n    \r\n    //Total number of tokens\r\n    uint256 public _totalSupply;\r\n    \r\n    //Mapping of addresses to balances\r\n    mapping(address => uint256) balances;\r\n\r\n    //Mapping of owner addresses to a mapping of spenders and allowed amounts\r\n    mapping(address => mapping(address => uint256)) allowed;\r\n    \r\n    constructor () {\r\n        name = \"MatthewToken\";\r\n        symbol = \"MJW\";\r\n        decimals = 18;\r\n        _totalSupply = 100000000000000000000000000;\r\n        \r\n        balances[msg.sender] = _totalSupply;\r\n        emit Transfer(address(0), msg.sender, _totalSupply);\r\n    }\r\n  \r\n  // Six mandatory functions\r\n\r\n  //Determines the total number of tokens created minus the balance of the contract owner\r\n  function totalSupply() public override view returns(uint256 total) {\r\n    return _totalSupply - balances[address(0)];\r\n  }\r\n\r\n  //Returns the number of tokens that a particular address has\r\n  function balanceOf(address _owner) public override view returns(uint256 balance) {\r\n    return balances[_owner];\r\n  }\r\n\r\n  //Returns the number of tokens allowed by the owner to be spent by the spender\r\n  function allowance(address _owner, address _spender) public override view returns(uint256 remaining) {\r\n    return allowed[_owner][_spender];\r\n  }\r\n\r\n  //Contract owner can give their approval to the user to collect the required number of tokens from the contract's address\r\n  function approve (address _spender, uint256 _value) public override returns(bool success) {\r\n    allowed[msg.sender][_spender] = _value;\r\n    emit Approval(msg.sender, _spender, _value);\r\n    return true;\r\n  }\r\n\r\n  //Contract owner can send a given amount of tokens to another address\r\n  //If the requested amount is greater than the owner's balance, an error will be thrown\r\n  function transfer(address _to, uint256 _value) public override returns (bool success) {\r\n    balances[msg.sender] = safeSub(balances[msg.sender], _value);\r\n    balances[_to] = safeAdd(balances[_to], _value);\r\n\r\n    emit Transfer(msg.sender, _to, _value);\r\n    return true;\r\n  }\r\n\r\n  //This function helps to automate transfers to and from specfic accounts\r\n  //If the requested value is greater than what is allowed by the owner, an error will be thrown\r\n  function transferFrom (address _from, address _to, uint256 _value) public override\r\n\treturns (bool success) {\r\n    balances[_from] = safeSub(balances[_from], _value);\r\n    allowed[_from][msg.sender] = safeSub(allowed[_from][msg.sender], _value);\r\n    balances[_to] = safeAdd(balances[_to], _value);\r\n        \r\n\temit Transfer(_from, _to, _value);\r\n    return true;\r\n  }\r\n}",
  "sourcePath": "C:/Users/Matthew Watman/Desktop/Dev/IOTA/erc20-token/contracts/ERC20.sol",
  "compiler": {
    "name": "solc",
    "version": "0.8.1+commit.df193b15.Emscripten.clang"
  },
  "schemaVersion": "3.3.3",
  "updatedAt": "2021-03-02T16:53:03.217Z",
  "devdoc": {
    "kind": "dev",
    "methods": {},
    "version": 1
  },
  "userdoc": {
    "kind": "user",
    "methods": {},
    "version": 1
  }
}